:040000008A15002835
:10000800FF00030E83018316E4000A08E3008A0157
:1000180070088312AF007108AE007208AD00730853
:10002800AC007408AB007508AA007608A900770828
:10003800A8007808A7007908A6007A08A5007B0818
:10004800A4007C08A3007D08A2008B1C2F28832510
:10005800BB258B104D280B1C4D288312061E3F28EC
:1000680096250330FC009730FD00FD0B3928FC0B6A
:10007800392800000000861E4C28EF250330FC00BC
:100088009730FD00FD0B4628FC0B462800000000B9
:100098000B100B1D70288312EE0A0319EF0A0030AB
:1000A8006F06031D5928F4306E06031D6F280830AB
:1000B8008316ED000530EE006623703083120317B7
:1000C800900003309100E8309200033093008323BE
:1000D8008312EE01EF010B1183122F08F0002E0896
:1000E800F1002D08F2002C08F3002B08F4002A0870
:1000F800F5002908F6002808F7002708F800260860
:10010800F9002508FA002408FB002308FC0022084F
:10011800FD00831663088A00640E8300FF0E7F0EBD
:020128000900CC
:10012A00083083120313FC002330FD00FD0B9B28CB
:06013A00FC0B9B280800ED
:10014000103083120313FD00FD0BA42800000800EB
:0401500000000800A3
:10015400A03083120313F0000F30F100F201F30119
:02016400080091
:1001660083120313FB01FA01F901F801A101730DD2
:10017600F80D7408F8027508031C750FF902760865
:10018600031C760FFA027708031C770FFB020001A7
:10019600031C0130A102F30D0730FC00730DF80DAE
:1001A600F90DFA0DFB0DA10D7408731CEC28F8026D
:1001B6007508031C750FF9027608031C760FFA0200
:1001C6007708031C770FFB020001031C0130A10214
:1001D600FD28F80775080318750FF9077608031840
:1001E600760FFA0777080318770FFB070001031845
:1001F6000130A107F30DFC0BD128720DF80DF90D96
:10020600FA0DFB0DA10D7408731C1B29F802750865
:10021600031C750FF9027608031C760FFA0277089D
:10022600031C770FFB020001031C0130A1022C29DD
:10023600F80775080318750FF90776080318760F7F
:10024600FA0777080318770FFB0700010318013038
:10025600A107F20D0730FC00720DF80DF90DFA0D2D
:10026600FB0DA10D7408721C4A29F8027508031CBF
:10027600750FF9027608031C760FFA027708031C3D
:10028600770FFB020001031C0130A1025B29F8076E
:1002960075080318750FF90776080318760FFA071D
:1002A60077080318770FFB07000103180130A10731
:1002B600F20DFC0B2F29710DF80DF90DFA0DFB0D42
:1002C600A10D7408721C7929F8027508031C750FB4
:1002D600F9027608031C760FFA027708031C770FDB
:1002E600FB020001031C0130A1028A29F8077508E8
:1002F6000318750FF90776080318760FFA077708BB
:100306000318770FFB07000103180130A107F10D51
:100316000730FC00710DF80DF90DFA0DFB0DA10D5E
:100326007408711CA829F8027508031C750FF902D8
:100336007608031C760FFA027708031C770FFB0278
:100346000001031C0130A102B929F807750803183A
:10035600750FF90776080318760FFA07770803185A
:10036600770FFB07000103180130A107F10DFC0B05
:100376008D29700DF80DF90DFA0DFB0DA10D740800
:10038600711CD729F8027508031C750FF902760847
:10039600031C760FFA027708031C770FFB02000195
:1003A600031C0130A102E829F80775080318750F28
:1003B600F90776080318760FFA0777080318770FF8
:1003C600FB07000103180130A107F00D0730FC0000
:1003D600700DF80DF90DFA0DFB0DA10D7408701CCA
:1003E600062AF8027508031C750FF9027608031C25
:1003F600760FFA027708031C770FFB020001031C35
:100406000130A102172AF80775080318750FF907B6
:1004160076080318760FFA0777080318770FFB0795
:10042600000103180130A107F00DFC0BEB29701831
:100436002A2A7408F80775080318750FF90776084D
:100446000318760FFA0777080318770FFB070800DB
:1004560083160313EF03EF036F08003C0318382AD3
:10046600EF030000000000002F2A0000000000003B
:0604760000000000080078
:10047C00831203132230FC00F801F901FA01FB018D
:10048C00FC030319742A0310FB0CFA0CF90CF80C7E
:10049C00F30CF20CF10CF00C031C462AFC030319B0
:1004AC00662A7408F80775080318750FF90776089B
:1004BC000318760FFA0777080318770FFB074A2AF9
:1004CC007408F80775080318750FF90776080318F0
:0E04DC00760FFA0777080318770FFB07080062
:1004EA0083120313F801F9011030FC00710DF80DA5
:1004FA00F90D7408F8027508031C750FF902031840
:10050A008D2A7408F80775080318750FF907031080
:0A051A00F00DF10DFC0B7B2A080028
:1005240083160313EC1B992A831287139B2A8312C5
:10053400871783166C1BA12A83120713A32A83121D
:1005440007178316EC1AA92A83128712AB2A83127F
:10055400871683166C1AB12A83120712B32A8312E0
:10056400071683163C18B92A83120715BB2A83126F
:1005740007118715A82087118316EC19C42A831242
:100584008713C62A8312871783166C19CC2A831201
:100594000713CE2A831207178316EC18D42A831262
:1005A4008712D62A8312871683166C18DC2A8312C4
:1005B4000712DE2A8312071683163C18E42A8312D4
:1005C4000715E62A831207118715A82087118316B9
:0C05D4003C1CEE2A9520EF2AA020080015
:0E05E000F201F101F001F801F3010030080012
:0805EE00FA1FF21300300800AF
:1005F6007B15FB1F052B0130F300F201F101F00121
:08060600FA0DF20CFF300800B0
:0E060E00073083120313FD00FD0B0B2B0800B9
:10061C00831603133C106B08EC00922283163C14D7
:02062C000800C4
:10062E00A0017208031D2C2B7108F2007008F10056
:10063E00F001A0157208031D2C2B7108F200F101B8
:10064E00A0112016720803193A2B2008F302031D7D
:10065E00031C3E2B0310F21B422BF00DF10DF20D7D
:10066E00F30B322B3E2B0130FC00F022452B0230D7
:0E067E00FC00FB22452B0430FC00F722080094
:10068C007B14FB1F512BF201FA1FFF30F200F1001B
:0A069C00F000FA0DF20CFF30080028
:0E06A600831603133B088A003A0882000800FE
:1006B400FB14FB1F642BFF30F300F200F100F00089
:0806C400FA0DF20CFF300800F2
:1006CC00831603136D08BF006E08F1000130F000B3
:1006DC0071080319752BF00D7010FF3E6F2B70080D
:1006EC00BE00F0097008BD0080306D0784007008F2
:0A06FC0080058413700880050800D3
:10070600AA20E830F4000330F500F601F7013E2296
:10071600700803179600710897007208980073080E
:1007260099001008F4001108F500F601F701B3204E
:1007360070080317960071089700720898007308EE
:1007460099007008F5007108F6007208F700730842
:10075600F800F80CF70CF60CF50CF813F80CF70C7F
:10076600F60CF50CF8137508F0007608F10077081A
:10077600F2007808F300F30CF20CF10CF00CF31312
:10078600700883160313ED007108EE00AA20031704
:100796001208F4001308F500F601F7013E2283164D
:1007A6006D08F9006E08FA00FB01FC010330F80041
:1007B6007908F4007A08F5007B08F6007C08F70053
:1007C60078080319ED2BF40DF50DF60DF70D7410E1
:1007D600FF3EE42BB32070080317960071089700BC
:1007E60072089800730899000A30F4000030F5008A
:1007F600831603136D08F0006E08F1007522700869
:100806008316ED007108EE0000307102031D0D2CF9
:10081600033070020318102C7D2C3F0884008312CD
:1008260003171908003C031D222C1808003C031D61
:10083600222C1708003C031D222C1608003C031826
:10084600792C831603133E0880046E080319452C81
:10085600831203179401950100301502031D392CEC
:10086600831603136E088312031714020318452C0C
:1008760083160313EF012B2283120317940A03191D
:10088600950A2F2C831603136D08EF002B223D08C3
:1008960080056E080319692C8312031794019501CC
:1008A60000301502031D5D2C831603136E08831298
:1008B600031714020318692C83160313EF012B2266
:1008C60083120317940A0319950A532C83160313EC
:1008D6006D08EF002B220130831203179602031CCA
:1008E6009702031C9802031C9902122C8316031309
:0608F6003D08800508002A
:1008FC0083120313FB01FC01FA0173080319BD2CCD
:10090C00F2178E30F302F31B8E2C03198E2CC02C95
:10091C00F309F30A08307302031CA32CF300F10D46
:10092C007208F100F20108307302031CA32CF10DC4
:10093C00F1017308031D0310AB2C73080319AB2CC6
:10094C000310F20CF10CF30BA62C7B1B711CB52CB9
:10095C00031CB52CF10A0319F20AF21BCC2CFA1F5A
:10096C00CF2CF209F109F10A0319F20ACF2CF2018A
:10097C00F101CF2C7B14FB1FD22CF201FA1FD22CCD
:10098C00FF30F200F100FA0DF20CD22C0130FC0019
:10099C00D42C0030FC00D42CFF30FC00FC080319D4
:0E09AC00D82C46237108F0007208F1000800F4
:1009BA00831603136708831203178D0083168C139B
:0A09CA000C1483120C08F000080062
:1009D400831203137008F8007108F000F101F201AA
:1009E400F301FB01FC019630F300FA017008F100F9
:0C09F4007808F000F801F2011723080059
:100A00008316031387110711071287120713871321
:100A10008312871107118713071387120712952076
:100A200095209520871607168715A82087119520F1
:100A30008715A820871195208715A8208711952054
:100A400007128715A820871195208715A8208711E0
:100A5000871287178715A8208711952087130716F7
:100A60008715A820871107128715A82087119520C0
:100A70008715A820871107168715A82087119520AC
:100A800007128715A82087118717071787160716DB
:0E0A90008715A8208711952083163C140800B6
:100A9E0053238A110A128000840ABA0A0319BB0A68
:080AAE00F003031D4F2D0800A9
:100AB600831203139F01C0309F0483162009F000A0
:100AC60070089F051F179F176708F000F00D70103C
:100AD600F00D7010F00D7010700883129F041F1433
:100AE60007231F151F1D792D0000752D1F101E08C9
:100AF600F100F00183161E08F0040030F10408002E
:100B0600083083160313ED000530EE0066237030BF
:100B160083120317900003309100E83092000330EF
:060B260093008323080088
:100B2C0083120313F101F20100307202031DA02D98
:100B3C00323071020318BA2D08140330FC00DA307D
:100B4C00FD00FD0BA72DFC0BA72D00000810183085
:100B5C00FC001C30FD00FD0BB12DFC0BB12D000079
:0A0B6C00F10A0319F20A9A2D08009D
:100B760083160313B801B90180303906F0008030BE
:100B86007002031DC82D033038020318EE2D8312A0
:100B960088150630FB001330FC00AD30FD00FD0B60
:100BA600D22DFC0BD22DFB0BD22D0000000088119C
:100BB6000630FB001330FC00AD30FD00FD0BE12DCF
:100BC600FC0BE12DFB0BE12D000000008316B80A9B
:080BD6000319B90ABF2D080044
:100BDE0083120313F101F20100307202031DF92D8D
:100BEE00323071020318132E08140230FC00083044
:100BFE00FD00FD0B002EFC0B002E0000081019301E
:100C0E00FC00EE30FD00FD0B0A2EFC0B0A2E000040
:0A0C1E00F10A0319F20AF32D080091
:100C2800FF3083160313C000FF30C100FF30C2003D
:100C3800FF3083129F01C0309F0483162009F00003
:0E0C480070089F051F179F1783121F140800C6
:100C5600831603178C1C312E00002B2E03136708F6
:100C6600831203178D008316031368088312031774
:100C76008C0083168C130C150B08F0008B13553063
:100C86008D00AA308D008C14F01B4B2E8B134C2E2E
:060C96008B170C11080091
:100C9C00602E803083160313E700732EC030E700FC
:100CAC00732E9430E700732ED430E700732E80300F
:100CBC00E700732E831603136708013A03194F2EAE
:100CCC006708023A0319542E6708033A0319572E82
:100CDC006708043A03195A2E5D2E6803F000670862
:100CEC00F0077008E7007008EC00922283163C10A5
:100CFC00EA016A0869078400000803198D2E6A0846
:100D0C00690784000008EB000E23EA0A7F2E3C14CE
:020D1C000800CD
:100D1E0083120313FB017308031D77080319E62ED4
:100D2E0072087606FA007708F3077E30031CA32EAE
:100D3E00F3020318E92EA62EF302031CEC2E720802
:100D4E00F8007108FC007008FD00F817F617031084
:100D5E00F201F101F0011830A0007D1CC02E7408C4
:100D6E00F00775080318750FF10776080318760F4C
:100D7E00F207F20CF10CF00CF80CFC0CFD0C03104D
:100D8E00A00BB42EF21BD02EF80DF00DF10DF20DBE
:100D9E00F3037B1B701CE22EF81FE22EF00A0319E0
:100DAE00F10A0319F20A031DE22EF20CF10CF00CFB
:100DBE00F30A0319E92EFA1FF2130030EE2E01305A
:100DCE00F022EE2E02305A23EE2E0430FB220000CB
:020DDE0008000B
:100E900030308400403083120313F000F0308316AA
:100EA000BA000630BB004F25A030840018308312F2
:100EB0000313F00030308316BA000730BB004F2513
:020EC000080028
:101000008A1148278A150130831603139F00FF3089
:10101000860088018B16811201128111011581143D
:1010200001108B170B168B15831288018A11142659
:101030008A158A1100258A150C30EC008A1192223B
:101040008A1501308316EC008A1192228A1501302C
:101050008316E7000130E8006330E9008A114E266C
:101060008A150230E7000130E8005230E9008A11A9
:101070004E268A150130EC008A1192228A158316B9
:10108000B801B90180303906F00080307002031DCC
:101090004B281E30380203185C283808E70038084F
:1010A000303E84000008E8008A112B268A150313BD
:1010B000B80A0319B90A422883128801013083163D
:1010C000EC008A1192228A1501308316E700013064
:1010D000E8006330E9008A114E268A150230E700E5
:1010E0000130E8005230E9008A114E268A1510308E
:1010F000FB003930FC000D30FD00FD0B7D28FC0BA2
:101100007D28FB0B7D280000000001308312D000F9
:101110000030D10001308316EC008A1192228A152A
:1011200001308316E7000330E800A930E9008A1196
:101130004E268A15E7018A115B258A158A11EA2451
:101140008A153530F4005E30F5007A30F6007D30D7
:10115000F7008A118F268A158A117E248A15700855
:101160008316E5007108E6006508C3006608C40040
:101170000A30F4000030F5006508F0006608F10060
:101180008A1175228A150A30F4000030F5008A11A0
:1011900075228A157808F0007908F1003030700760
:1011A0008316A2000A30F4000030F5006508F00054
:1011B0006608F1008A1175228A157808F00079080E
:1011C000F100303070078316A300DF30A600023034
:1011D000E7000530E800A130E9008A114E268A15A3
:1011E0000630FB001330FC00AD30FD00FD0BF6288F
:1011F000FC0BF628FB0BF628000000000130EC0089
:101200008A1192228A1583164408003C031D0A297C
:101210004308273C03181E29831208160630FB00DA
:101220001330FC00AD30FD00FD0B1429FC0B14291C
:10123000FB0B142900000000081238290030831627
:101240004402031D2529273043020318382983123D
:1012500008150630FB001330FC00AD30FD00FD0B1F
:101260002F29FC0B2F29FB0B2F2900000000081150
:101270008316B801B90180303906F0008030700261
:10128000031D44290E303802031858293808D53E6A
:10129000E5003808E7008A11DD248A158316031358
:1012A0006508840070088000B80A0319B90A3B2950
:1012B000B801B90180303906F00080307002031D9A
:1012C00063290E30380203187A293808C53EE50034
:1012D0003608E7008A11DD248A1583160313650892
:1012E000840070088000B60A0319B70AB80A031907
:1012F000B90A5A290F30B6000030B7000130EC00AF
:101300008A1192228A1501308316E7000130E80025
:10131000D530E9008A114E268A150230E7000130E7
:10132000E800C530E9008A114E268A150B30FB0013
:101330002630FC005D30FD00FD0B9C29FC0B9C2938
:0C134000FB0B9C29000000005C28A52984
:100DE00045346234693478346134203431343034F9
:100DF0006D346734203432342F344A342034413453
:100E0000723469346334653470347434203431346A
:100E100030346D346734203433342F344A34003462
:040E20000034003466
:100E24004834613476346534203461342034673492
:100E34006F346F3464342034743469346D346534FD
:020E4400003478
:100E46004D34523420344D346F34683461346D344B
:060E560065346434003431
:040E5C00003400342A
:020E60000F344D
:100E62002034303430342E3430342034433400349F
:100E7200543465346D34703465347234613474348E
:0A0E82007534723465343A340034DC
:040E8C000F340034EB
:02400E007A3BFB
:00000001FF
